:03000000020800F3
:0C080000787FE4F6D8FD758115020847EA
:0C08FD000A08F7FFE1BFB767F3DB61FDFD
:10088C00E4F514F515758901758AB0758C3CD28C1C
:10089C00308DFDC28DC28C0515E5157002051464F2
:0608AC0014451470E02267
:1008D80075B0F7E4F512F51374082513F8E6F5B0CA
:1008E80012088C0513E51370020512C3940AE51269
:0508F800940040E42221
:1008B20075A02A7590041208D875A0857590041247
:1008C20008D875A09075900A1208D875A052759034
:0608D200011208D880DAD3
:10080C000208B2E493A3F8E493A34003F68001F248
:10081C0008DFF48029E493A3F85407240CC8C333ED
:10082C00C4540F4420C8834004F456800146F6DFBC
:10083C00E4800B01020408102040809008FDE47E47
:10084C00019360BCA3FF543F30E509541FFEE493B1
:10085C00A360010ECF54C025E060A840B8E493A378
:10086C00FAE493A3F8E493A3C8C582C8CAC583CAA3
:10087C00F0A3C8C582C8CAC583CADFE9DEE780BE5B
:0109090000ED
:00000001FF
